{
  "contractName": "AstroidsContract",
  "abi": [
    {
      "anonymous": false,
      "inputs": [
        {
          "indexed": true,
          "internalType": "address",
          "name": "previousOwner",
          "type": "address"
        },
        {
          "indexed": true,
          "internalType": "address",
          "name": "newOwner",
          "type": "address"
        }
      ],
      "name": "OwnershipTransferred",
      "type": "event"
    },
    {
      "anonymous": false,
      "inputs": [],
      "name": "newPayout",
      "type": "event"
    },
    {
      "anonymous": false,
      "inputs": [
        {
          "indexed": true,
          "internalType": "address",
          "name": "_from",
          "type": "address"
        },
        {
          "indexed": false,
          "internalType": "uint256",
          "name": "_numTokens",
          "type": "uint256"
        }
      ],
      "name": "newScore",
      "type": "event"
    },
    {
      "anonymous": false,
      "inputs": [],
      "name": "timeToPayout",
      "type": "event"
    },
    {
      "inputs": [
        {
          "internalType": "uint256",
          "name": "",
          "type": "uint256"
        }
      ],
      "name": "MonthTopScores",
      "outputs": [
        {
          "internalType": "uint256",
          "name": "score",
          "type": "uint256"
        },
        {
          "internalType": "bytes32",
          "name": "userName",
          "type": "bytes32"
        },
        {
          "internalType": "address payable",
          "name": "account",
          "type": "address"
        },
        {
          "internalType": "uint256",
          "name": "dateTime",
          "type": "uint256"
        }
      ],
      "stateMutability": "view",
      "type": "function",
      "constant": true
    },
    {
      "inputs": [],
      "name": "devCut",
      "outputs": [
        {
          "internalType": "uint256",
          "name": "",
          "type": "uint256"
        }
      ],
      "stateMutability": "view",
      "type": "function",
      "constant": true
    },
    {
      "inputs": [],
      "name": "gameCost",
      "outputs": [
        {
          "internalType": "uint256",
          "name": "",
          "type": "uint256"
        }
      ],
      "stateMutability": "view",
      "type": "function",
      "constant": true
    },
    {
      "inputs": [
        {
          "internalType": "uint256[]",
          "name": "_array",
          "type": "uint256[]"
        }
      ],
      "name": "getArraySum",
      "outputs": [
        {
          "internalType": "uint256",
          "name": "sum_",
          "type": "uint256"
        }
      ],
      "stateMutability": "pure",
      "type": "function",
      "constant": true
    },
    {
      "inputs": [],
      "name": "kill",
      "outputs": [],
      "stateMutability": "nonpayable",
      "type": "function"
    },
    {
      "inputs": [],
      "name": "lastPayoutEvent",
      "outputs": [
        {
          "internalType": "uint256",
          "name": "",
          "type": "uint256"
        }
      ],
      "stateMutability": "view",
      "type": "function",
      "constant": true
    },
    {
      "inputs": [],
      "name": "owner",
      "outputs": [
        {
          "internalType": "address",
          "name": "",
          "type": "address"
        }
      ],
      "stateMutability": "view",
      "type": "function",
      "constant": true
    },
    {
      "inputs": [],
      "name": "renounceOwnership",
      "outputs": [],
      "stateMutability": "nonpayable",
      "type": "function"
    },
    {
      "inputs": [
        {
          "internalType": "address",
          "name": "newOwner",
          "type": "address"
        }
      ],
      "name": "transferOwnership",
      "outputs": [],
      "stateMutability": "nonpayable",
      "type": "function"
    },
    {
      "inputs": [
        {
          "internalType": "uint256",
          "name": "_newCost",
          "type": "uint256"
        }
      ],
      "name": "updateGameCost",
      "outputs": [],
      "stateMutability": "nonpayable",
      "type": "function"
    },
    {
      "inputs": [
        {
          "internalType": "uint256",
          "name": "_tensOfTokens",
          "type": "uint256"
        }
      ],
      "name": "purchaseTensOfTokens",
      "outputs": [],
      "stateMutability": "payable",
      "type": "function",
      "payable": true
    },
    {
      "inputs": [
        {
          "internalType": "address",
          "name": "_address",
          "type": "address"
        }
      ],
      "name": "getNumTokens",
      "outputs": [
        {
          "internalType": "uint256",
          "name": "",
          "type": "uint256"
        }
      ],
      "stateMutability": "view",
      "type": "function",
      "constant": true
    },
    {
      "inputs": [],
      "name": "getPot",
      "outputs": [
        {
          "internalType": "uint256",
          "name": "",
          "type": "uint256"
        }
      ],
      "stateMutability": "view",
      "type": "function",
      "constant": true
    },
    {
      "inputs": [
        {
          "internalType": "uint256",
          "name": "_score",
          "type": "uint256"
        },
        {
          "internalType": "bytes32",
          "name": "_userName",
          "type": "bytes32"
        },
        {
          "internalType": "address payable",
          "name": "_account",
          "type": "address"
        }
      ],
      "name": "createScore",
      "outputs": [],
      "stateMutability": "nonpayable",
      "type": "function"
    },
    {
      "inputs": [],
      "name": "payDevs",
      "outputs": [],
      "stateMutability": "nonpayable",
      "type": "function"
    },
    {
      "inputs": [
        {
          "internalType": "uint256",
          "name": "_newCut",
          "type": "uint256"
        }
      ],
      "name": "updateDevCut",
      "outputs": [],
      "stateMutability": "nonpayable",
      "type": "function"
    },
    {
      "inputs": [],
      "name": "payout",
      "outputs": [],
      "stateMutability": "nonpayable",
      "type": "function"
    },
    {
      "inputs": [],
      "name": "topscoresLength",
      "outputs": [
        {
          "internalType": "uint256",
          "name": "",
          "type": "uint256"
        }
      ],
      "stateMutability": "view",
      "type": "function",
      "constant": true
    },
    {
      "inputs": [],
      "name": "getDevBudget",
      "outputs": [
        {
          "internalType": "uint256",
          "name": "",
          "type": "uint256"
        }
      ],
      "stateMutability": "view",
      "type": "function",
      "constant": true
    }
  ],
  "bytecode": "0x608060405266038d7ea4c680006001556000600255600a6003554260045534801561002957600080fd5b50600061003a6100dd60201b60201c565b9050806000806101000a81548173ffffffffffffffffffffffffffffffffffffffff021916908373ffffffffffffffffffffffffffffffffffffffff1602179055508073ffffffffffffffffffffffffffffffffffffffff16600073ffffffffffffffffffffffffffffffffffffffff167f8be0079c531659141344cd1fd0a4f28419497f9722a3daafe3b4186f6b6457e060405160405180910390a3506100e5565b600033905090565b6116b8806100f46000396000f3fe6080604052600436106101145760003560e01c80638da5cb5b116100a0578063cab896dc11610064578063cab896dc14610482578063d6e2e909146104ad578063f2fde38b146104e8578063f41a4cf714610539578063fa98b77c1461055057610114565b80638da5cb5b146103855780639c286837146103c6578063a8949242146103f1578063b99f3ab51461041c578063c1c4676e1461044757610114565b8063403c9fa8116100e7578063403c9fa8146102b057806341c0e1b5146102db57806363bd1d4a146102f2578063715018a614610309578063824cdc1e1461032057610114565b80631d743031146101195780633098b74b146101445780633aa3eb011461021d5780633e38c67b14610282575b600080fd5b34801561012557600080fd5b5061012e6105ca565b6040518082815260200191505060405180910390f35b34801561015057600080fd5b506102076004803603602081101561016757600080fd5b810190808035906020019064010000000081111561018457600080fd5b82018360208201111561019657600080fd5b803590602001918460208302840111640100000000831117156101b857600080fd5b919080806020026020016040519081016040528093929190818152602001838360200280828437600081840152601f19601f8201169050808301925050505050505091929192905050506105d7565b6040518082815260200191505060405180910390f35b34801561022957600080fd5b5061026c6004803603602081101561024057600080fd5b81019080803573ffffffffffffffffffffffffffffffffffffffff16906020019092919050505061060f565b6040518082815260200191505060405180910390f35b6102ae6004803603602081101561029857600080fd5b8101908080359060200190929190505050610658565b005b3480156102bc57600080fd5b506102c56106f6565b6040518082815260200191505060405180910390f35b3480156102e757600080fd5b506102f0610718565b005b3480156102fe57600080fd5b506103076107f9565b005b34801561031557600080fd5b5061031e610816565b005b34801561032c57600080fd5b506103836004803603606081101561034357600080fd5b810190808035906020019092919080359060200190929190803573ffffffffffffffffffffffffffffffffffffffff16906020019092919050505061099c565b005b34801561039157600080fd5b5061039a610cb2565b604051808273ffffffffffffffffffffffffffffffffffffffff16815260200191505060405180910390f35b3480156103d257600080fd5b506103db610cdb565b6040518082815260200191505060405180910390f35b3480156103fd57600080fd5b50610406610ce1565b6040518082815260200191505060405180910390f35b34801561042857600080fd5b50610431610db3565b6040518082815260200191505060405180910390f35b34801561045357600080fd5b506104806004803603602081101561046a57600080fd5b8101908080359060200190929190505050610db9565b005b34801561048e57600080fd5b50610497610e9d565b6040518082815260200191505060405180910390f35b3480156104b957600080fd5b506104e6600480360360208110156104d057600080fd5b8101908080359060200190929190505050610ea3565b005b3480156104f457600080fd5b506105376004803603602081101561050b57600080fd5b81019080803573ffffffffffffffffffffffffffffffffffffffff169060200190929190505050610f83565b005b34801561054557600080fd5b5061054e61118e565b005b34801561055c57600080fd5b506105896004803603602081101561057357600080fd5b81019080803590602001909291905050506111ee565b604051808581526020018481526020018373ffffffffffffffffffffffffffffffffffffffff16815260200182815260200194505050505060405180910390f35b6000600580549050905090565b6000805b8251811015610609578281815181106105f057fe5b60200260200101518201915080806001019150506105db565b50919050565b6000600660008373ffffffffffffffffffffffffffffffffffffffff1673ffffffffffffffffffffffffffffffffffffffff168152602001908152602001600020549050919050565b600a816001540202341461066b57600080fd5b600a8102600660003373ffffffffffffffffffffffffffffffffffffffff1673ffffffffffffffffffffffffffffffffffffffff1681526020019081526020016000205401600660003373ffffffffffffffffffffffffffffffffffffffff1673ffffffffffffffffffffffffffffffffffffffff1681526020019081526020016000208190555050565b6000606460035460640360015460058054905002028161071257fe5b04905090565b61072061124b565b73ffffffffffffffffffffffffffffffffffffffff1660008054906101000a900473ffffffffffffffffffffffffffffffffffffffff1673ffffffffffffffffffffffffffffffffffffffff16146107e0576040517f08c379a00000000000000000000000000000000000000000000000000000000081526004018080602001828103825260208152602001807f4f776e61626c653a2063616c6c6572206973206e6f7420746865206f776e657281525060200191505060405180910390fd5b3373ffffffffffffffffffffffffffffffffffffffff16ff5b6201518060045442031161080c57600080fd5b610814611253565b565b61081e61124b565b73ffffffffffffffffffffffffffffffffffffffff1660008054906101000a900473ffffffffffffffffffffffffffffffffffffffff1673ffffffffffffffffffffffffffffffffffffffff16146108de576040517f08c379a00000000000000000000000000000000000000000000000000000000081526004018080602001828103825260208152602001807f4f776e61626c653a2063616c6c6572206973206e6f7420746865206f776e657281525060200191505060405180910390fd5b600073ffffffffffffffffffffffffffffffffffffffff1660008054906101000a900473ffffffffffffffffffffffffffffffffffffffff1673ffffffffffffffffffffffffffffffffffffffff167f8be0079c531659141344cd1fd0a4f28419497f9722a3daafe3b4186f6b6457e060405160405180910390a360008060006101000a81548173ffffffffffffffffffffffffffffffffffffffff021916908373ffffffffffffffffffffffffffffffffffffffff160217905550565b6109a461124b565b73ffffffffffffffffffffffffffffffffffffffff1660008054906101000a900473ffffffffffffffffffffffffffffffffffffffff1673ffffffffffffffffffffffffffffffffffffffff1614610a64576040517f08c379a00000000000000000000000000000000000000000000000000000000081526004018080602001828103825260208152602001807f4f776e61626c653a2063616c6c6572206973206e6f7420746865206f776e657281525060200191505060405180910390fd5b6000600660008373ffffffffffffffffffffffffffffffffffffffff1673ffffffffffffffffffffffffffffffffffffffff1681526020019081526020016000205411610ab057600080fd5b600560405180608001604052808581526020018481526020018373ffffffffffffffffffffffffffffffffffffffff168152602001428152509080600181540180825580915050600190039060005260206000209060040201600090919091909150600082015181600001556020820151816001015560408201518160020160006101000a81548173ffffffffffffffffffffffffffffffffffffffff021916908373ffffffffffffffffffffffffffffffffffffffff160217905550606082015181600301555050600660008273ffffffffffffffffffffffffffffffffffffffff1673ffffffffffffffffffffffffffffffffffffffff16815260200190815260200160002060008154809291906001900391905055508073ffffffffffffffffffffffffffffffffffffffff167ffc1bd585273f8056209355a061b49cf3c74382f11b3ca663fc47000d93b19caf600660008473ffffffffffffffffffffffffffffffffffffffff1673ffffffffffffffffffffffffffffffffffffffff168152602001908152602001600020546040518082815260200191505060405180910390a2601e6018603c80426004540381610c6957fe5b0481610c7157fe5b0481610c7957fe5b041115610cad577f73f4c897b92c6b775e0b8ae1058dfc322ada21f0818e4dd0ba6cd079061474f260405160405180910390a15b505050565b60008060009054906101000a900473ffffffffffffffffffffffffffffffffffffffff16905090565b60035481565b6000610ceb61124b565b73ffffffffffffffffffffffffffffffffffffffff1660008054906101000a900473ffffffffffffffffffffffffffffffffffffffff1673ffffffffffffffffffffffffffffffffffffffff1614610dab576040517f08c379a00000000000000000000000000000000000000000000000000000000081526004018080602001828103825260208152602001807f4f776e61626c653a2063616c6c6572206973206e6f7420746865206f776e657281525060200191505060405180910390fd5b600254905090565b60045481565b610dc161124b565b73ffffffffffffffffffffffffffffffffffffffff1660008054906101000a900473ffffffffffffffffffffffffffffffffffffffff1673ffffffffffffffffffffffffffffffffffffffff1614610e81576040517f08c379a00000000000000000000000000000000000000000000000000000000081526004018080602001828103825260208152602001807f4f776e61626c653a2063616c6c6572206973206e6f7420746865206f776e657281525060200191505060405180910390fd5b600060058054905014610e9357600080fd5b8060018190555050565b60015481565b610eab61124b565b73ffffffffffffffffffffffffffffffffffffffff1660008054906101000a900473ffffffffffffffffffffffffffffffffffffffff1673ffffffffffffffffffffffffffffffffffffffff1614610f6b576040517f08c379a00000000000000000000000000000000000000000000000000000000081526004018080602001828103825260208152602001807f4f776e61626c653a2063616c6c6572206973206e6f7420746865206f776e657281525060200191505060405180910390fd5b6003548110610f7957600080fd5b8060038190555050565b610f8b61124b565b73ffffffffffffffffffffffffffffffffffffffff1660008054906101000a900473ffffffffffffffffffffffffffffffffffffffff1673ffffffffffffffffffffffffffffffffffffffff161461104b576040517f08c379a00000000000000000000000000000000000000000000000000000000081526004018080602001828103825260208152602001807f4f776e61626c653a2063616c6c6572206973206e6f7420746865206f776e657281525060200191505060405180910390fd5b600073ffffffffffffffffffffffffffffffffffffffff168173ffffffffffffffffffffffffffffffffffffffff1614156110d1576040517f08c379a000000000000000000000000000000000000000000000000000000000815260040180806020018281038252602681526020018061165d6026913960400191505060405180910390fd5b8073ffffffffffffffffffffffffffffffffffffffff1660008054906101000a900473ffffffffffffffffffffffffffffffffffffffff1673ffffffffffffffffffffffffffffffffffffffff167f8be0079c531659141344cd1fd0a4f28419497f9722a3daafe3b4186f6b6457e060405160405180910390a3806000806101000a81548173ffffffffffffffffffffffffffffffffffffffff021916908373ffffffffffffffffffffffffffffffffffffffff16021790555050565b6000611198610cb2565b90508073ffffffffffffffffffffffffffffffffffffffff166108fc6002549081150290604051600060405180830381858888f193505050501580156111e2573d6000803e3d6000fd5b50600060028190555050565b600581815481106111fb57fe5b90600052602060002090600402016000915090508060000154908060010154908060020160009054906101000a900473ffffffffffffffffffffffffffffffffffffffff16908060030154905084565b600033905090565b60606005805480602002602001604051908101604052809291908181526020016000905b8282101561131d578382906000526020600020906004020160405180608001604052908160008201548152602001600182015481526020016002820160009054906101000a900473ffffffffffffffffffffffffffffffffffffffff1673ffffffffffffffffffffffffffffffffffffffff1673ffffffffffffffffffffffffffffffffffffffff16815260200160038201548152505081526020019060010190611277565b50505050905061132c8161146d565b9050600081519050600060015482029050476002548201111561134e57600080fd5b606460035482028161135c57fe5b0460025401600281905550606460035460640382028161137857fe5b0490506000606460328551028161138b57fe5b049050600060066001836002020160018401840202816113a757fe5b04905060005b82811015611431578581815181106113c157fe5b60200260200101516040015173ffffffffffffffffffffffffffffffffffffffff166108fc83838603848703880202816113f757fe5b049081150290604051600060405180830381858888f19350505050158015611423573d6000803e3d6000fd5b5080806001019150506113ad565b507f5cca367d59ed86eefe70023b35dacd3b815f89ff9fb543a238713eaaff45427e60405160405180910390a1611466611487565b5050505050565b606061147f8260006001855103611497565b819050919050565b6005600061149591906115e2565b565b60008290506000829050808214156114b05750506115dd565b6000856002868603816114bf57fe5b058601815181106114cc57fe5b60200260200101516000015190505b8183136115b1575b808684815181106114f057fe5b602002602001015160000151111561150f5782806001019350506114e3565b5b85828151811061151c57fe5b60200260200101516000015181111561153d57818060019003925050611510565b8183136115ac5785828151811061155057fe5b602002602001015186848151811061156457fe5b602002602001015187858151811061157857fe5b6020026020010188858151811061158b57fe5b60200260200101829052829052505082806001019350508180600190039250505b6114db565b818512156115c5576115c4868684611497565b5b838312156115d9576115d8868486611497565b5b5050505b505050565b50805460008255600402906000526020600020908101906116039190611606565b50565b5b808211156116585760008082016000905560018201600090556002820160006101000a81549073ffffffffffffffffffffffffffffffffffffffff0219169055600382016000905550600401611607565b509056fe4f776e61626c653a206e6577206f776e657220697320746865207a65726f2061646472657373a26469706673582212204baf256f98e4fa79cbbada8af46015824b23e1d7162964c3d060d21c08e6698064736f6c634300060c0033",
  "immutableReferences": {},
  "source": "// SPDX-License-Identifier: UNLICENSED\r\n\r\npragma solidity >=0.4.22 <0.7.0;\r\n\r\nimport \"./HelperContract.sol\";\r\nimport \"./openzepplin/Ownable.sol\";\r\n\r\ncontract AstroidsContract is HelperContract {\r\n    // struct Score {\r\n    //     uint256 score;\r\n    //     string userName;\r\n    //     address account;\r\n    //     uint256 dateTime;\r\n    // }\r\n\r\n    // Update later with better weights\r\n\r\n    uint256 public gameCost = 1000000000000000 wei;\r\n\r\n    uint256 private devBudget = 0 ether;\r\n    uint256 public devCut = 10; // %\r\n\r\n    uint256 public lastPayoutEvent = now;\r\n\r\n    Score[] public MonthTopScores;\r\n\r\n    mapping(address => uint256) numTokens;\r\n\r\n    function updateGameCost(uint256 _newCost) external onlyOwner {\r\n        require(MonthTopScores.length == 0);\r\n        gameCost = _newCost;\r\n    }\r\n\r\n    function purchaseTensOfTokens(uint256 _tensOfTokens) external payable {\r\n        require(msg.value == gameCost * _tensOfTokens * 10);\r\n\r\n        numTokens[msg.sender] = numTokens[msg.sender] + _tensOfTokens * 10;\r\n    }\r\n\r\n    function getNumTokens(address _address) external view returns (uint256) {\r\n        return numTokens[_address];\r\n    }\r\n\r\n    function getPot() external view returns (uint256) {\r\n        // pot = numGames * gameCost - what is paid to devs\r\n        return ((MonthTopScores.length * gameCost) * (100 - devCut)) / 100;\r\n    }\r\n\r\n    event timeToPayout();\r\n\r\n    event newScore(address indexed _from, uint256 _numTokens);\r\n\r\n    function createScore(\r\n        uint256 _score,\r\n        bytes32 _userName,\r\n        address payable _account\r\n    ) external onlyOwner {\r\n        require(numTokens[_account] > 0);\r\n\r\n        MonthTopScores.push(Score(_score, _userName, _account, now));\r\n\r\n        numTokens[_account]--;\r\n\r\n        emit newScore(_account, numTokens[_account]);\r\n\r\n        if ((lastPayoutEvent - now) / 60 / 60 / 24 > 30) {\r\n            emit timeToPayout();\r\n        }\r\n    }\r\n\r\n    function payDevs() external {\r\n        address payable _owner = address(uint160(owner()));\r\n        _owner.transfer(devBudget);\r\n        devBudget = 0;\r\n    }\r\n\r\n    function updateDevCut(uint256 _newCut) external onlyOwner {\r\n        require(_newCut < devCut);\r\n\r\n        devCut = _newCut;\r\n    }\r\n\r\n    \r\n\r\n    event newPayout();\r\n\r\n    function payout() external {\r\n        // 30 days betweem payouts()\r\n        require(now - lastPayoutEvent > 86400);\r\n        _payoutMonthTopScores();\r\n    }\r\n\r\n    function _payoutMonthTopScores() internal {\r\n        Score[] memory _rankedTopScore = MonthTopScores;\r\n\r\n        _rankedTopScore = super.sort(_rankedTopScore);\r\n\r\n        uint256 numGames = _rankedTopScore.length;\r\n\r\n        uint256 pot = numGames * gameCost;\r\n\r\n        require( pot + devBudget <= address(this).balance);\r\n\r\n        // Subtract dev cut\r\n\r\n        devBudget = devBudget + (pot * devCut) / 100;\r\n\r\n        pot = (pot * (100 - devCut)) / 100;\r\n\r\n        uint256 j = (_rankedTopScore.length * 50) / 100;\r\n        uint256 sum = (j * (j + 1) * (2 * j + 1)) / 6;\r\n\r\n        for (uint256 i = 0; i < j; i++) {\r\n            _rankedTopScore[i].account.transfer(\r\n                (pot * (j - i) * (j - i)) / sum\r\n            );\r\n        }\r\n\r\n        // TODO: fill in new payout data to emit\r\n        emit newPayout();\r\n\r\n        // clear all scores\r\n        _clearMonthScores();\r\n    }\r\n\r\n    function _clearMonthScores() private {\r\n        delete MonthTopScores;\r\n    }\r\n\r\n    function topscoresLength() public view returns (uint256) {\r\n        return MonthTopScores.length;\r\n    }\r\n\r\n    function getDevBudget() public view onlyOwner returns (uint256) {\r\n        return (devBudget);\r\n    }\r\n}\r\n",
  "sourcePath": "C:/Users/ghard/Documents/GitHub/TRX-Arcade/contracts/AstroidsContract.sol",
  "compiler": {
    "name": "solc",
    "version": "0.6.12+commit.27d51765.Emscripten.clang"
  },
  "schemaVersion": "3.2.4",
  "updatedAt": "2020-10-16T19:17:32.746Z",
  "networkType": "ethereum",
  "devdoc": {
    "kind": "dev",
    "methods": {
      "owner()": {
        "details": "Returns the address of the current owner."
      },
      "renounceOwnership()": {
        "details": "Leaves the contract without owner. It will not be possible to call `onlyOwner` functions anymore. Can only be called by the current owner. NOTE: Renouncing ownership will leave the contract without an owner, thereby removing any functionality that is only available to the owner."
      },
      "transferOwnership(address)": {
        "details": "Transfers ownership of the contract to a new account (`newOwner`). Can only be called by the current owner."
      }
    },
    "version": 1
  },
  "userdoc": {
    "kind": "user",
    "methods": {},
    "version": 1
  }
}