{
  "contractName": "HelperContract",
  "abi": [
    {
      "anonymous": false,
      "inputs": [
        {
          "indexed": true,
          "internalType": "address",
          "name": "previousOwner",
          "type": "address"
        },
        {
          "indexed": true,
          "internalType": "address",
          "name": "newOwner",
          "type": "address"
        }
      ],
      "name": "OwnershipTransferred",
      "type": "event"
    },
    {
      "inputs": [],
      "name": "owner",
      "outputs": [
        {
          "internalType": "address",
          "name": "",
          "type": "address"
        }
      ],
      "stateMutability": "view",
      "type": "function"
    },
    {
      "inputs": [],
      "name": "renounceOwnership",
      "outputs": [],
      "stateMutability": "nonpayable",
      "type": "function"
    },
    {
      "inputs": [
        {
          "internalType": "address",
          "name": "newOwner",
          "type": "address"
        }
      ],
      "name": "transferOwnership",
      "outputs": [],
      "stateMutability": "nonpayable",
      "type": "function"
    },
    {
      "inputs": [],
      "name": "kill",
      "outputs": [],
      "stateMutability": "nonpayable",
      "type": "function"
    },
    {
      "inputs": [
        {
          "internalType": "uint256[]",
          "name": "_array",
          "type": "uint256[]"
        }
      ],
      "name": "getArraySum",
      "outputs": [
        {
          "internalType": "uint256",
          "name": "sum_",
          "type": "uint256"
        }
      ],
      "stateMutability": "pure",
      "type": "function"
    }
  ],
  "bytecode": "0x608060405234801561001057600080fd5b5060006100216100c460201b60201c565b9050806000806101000a81548173ffffffffffffffffffffffffffffffffffffffff021916908373ffffffffffffffffffffffffffffffffffffffff1602179055508073ffffffffffffffffffffffffffffffffffffffff16600073ffffffffffffffffffffffffffffffffffffffff167f8be0079c531659141344cd1fd0a4f28419497f9722a3daafe3b4186f6b6457e060405160405180910390a3506100cc565b600033905090565b6106eb806100db6000396000f3fe608060405234801561001057600080fd5b50600436106100575760003560e01c80633098b74b1461005c57806341c0e1b514610128578063715018a6146101325780638da5cb5b1461013c578063f2fde38b14610170575b600080fd5b6101126004803603602081101561007257600080fd5b810190808035906020019064010000000081111561008f57600080fd5b8201836020820111156100a157600080fd5b803590602001918460208302840111640100000000831117156100c357600080fd5b919080806020026020016040519081016040528093929190818152602001838360200280828437600081840152601f19601f8201169050808301925050505050505091929192905050506101b4565b6040518082815260200191505060405180910390f35b6101306101ec565b005b61013a6102cd565b005b610144610453565b604051808273ffffffffffffffffffffffffffffffffffffffff16815260200191505060405180910390f35b6101b26004803603602081101561018657600080fd5b81019080803573ffffffffffffffffffffffffffffffffffffffff16906020019092919050505061047c565b005b6000805b82518110156101e6578281815181106101cd57fe5b60200260200101518201915080806001019150506101b8565b50919050565b6101f4610687565b73ffffffffffffffffffffffffffffffffffffffff1660008054906101000a900473ffffffffffffffffffffffffffffffffffffffff1673ffffffffffffffffffffffffffffffffffffffff16146102b4576040517f08c379a00000000000000000000000000000000000000000000000000000000081526004018080602001828103825260208152602001807f4f776e61626c653a2063616c6c6572206973206e6f7420746865206f776e657281525060200191505060405180910390fd5b3373ffffffffffffffffffffffffffffffffffffffff16ff5b6102d5610687565b73ffffffffffffffffffffffffffffffffffffffff1660008054906101000a900473ffffffffffffffffffffffffffffffffffffffff1673ffffffffffffffffffffffffffffffffffffffff1614610395576040517f08c379a00000000000000000000000000000000000000000000000000000000081526004018080602001828103825260208152602001807f4f776e61626c653a2063616c6c6572206973206e6f7420746865206f776e657281525060200191505060405180910390fd5b600073ffffffffffffffffffffffffffffffffffffffff1660008054906101000a900473ffffffffffffffffffffffffffffffffffffffff1673ffffffffffffffffffffffffffffffffffffffff167f8be0079c531659141344cd1fd0a4f28419497f9722a3daafe3b4186f6b6457e060405160405180910390a360008060006101000a81548173ffffffffffffffffffffffffffffffffffffffff021916908373ffffffffffffffffffffffffffffffffffffffff160217905550565b60008060009054906101000a900473ffffffffffffffffffffffffffffffffffffffff16905090565b610484610687565b73ffffffffffffffffffffffffffffffffffffffff1660008054906101000a900473ffffffffffffffffffffffffffffffffffffffff1673ffffffffffffffffffffffffffffffffffffffff1614610544576040517f08c379a00000000000000000000000000000000000000000000000000000000081526004018080602001828103825260208152602001807f4f776e61626c653a2063616c6c6572206973206e6f7420746865206f776e657281525060200191505060405180910390fd5b600073ffffffffffffffffffffffffffffffffffffffff168173ffffffffffffffffffffffffffffffffffffffff1614156105ca576040517f08c379a00000000000000000000000000000000000000000000000000000000081526004018080602001828103825260268152602001806106906026913960400191505060405180910390fd5b8073ffffffffffffffffffffffffffffffffffffffff1660008054906101000a900473ffffffffffffffffffffffffffffffffffffffff1673ffffffffffffffffffffffffffffffffffffffff167f8be0079c531659141344cd1fd0a4f28419497f9722a3daafe3b4186f6b6457e060405160405180910390a3806000806101000a81548173ffffffffffffffffffffffffffffffffffffffff021916908373ffffffffffffffffffffffffffffffffffffffff16021790555050565b60003390509056fe4f776e61626c653a206e6577206f776e657220697320746865207a65726f2061646472657373a2646970667358221220a020947d587f78b3ceec0d850803ae4e320bdc523e6fa87fc6191e31221056cc64736f6c634300060c0033",
  "immutableReferences": {},
  "source": "// SPDX-License-Identifier: UNLICENSED\r\n\r\npragma solidity >=0.4.22 <0.7.0;\r\n\r\nimport \"./openzepplin/Ownable.sol\";\r\n\r\ncontract HelperContract is Ownable {\r\n\r\n    struct Score {\r\n        uint256 score;\r\n        bytes32 userName;\r\n        address payable account;\r\n        uint256 dateTime;\r\n    }\r\n\r\n    function kill() public virtual onlyOwner {\r\n        selfdestruct(msg.sender);\r\n    }\r\n\r\n    // TODO: input and return correct data\r\n    function sort(Score[] memory data) internal pure returns (Score[] memory) {\r\n        quickSort(data, int256(0), int256(data.length - 1));\r\n        return data;\r\n    }\r\n\r\n    // TODO: sort largest to smallest\r\n    function quickSort(\r\n        Score[] memory arr,\r\n        int256 left,\r\n        int256 right\r\n    ) internal pure {\r\n        int256 i = left;\r\n        int256 j = right;\r\n        if (i == j) return;\r\n        uint256 pivot = arr[uint256(left + (right - left) / 2)].score;\r\n        while (i <= j) {\r\n            while (arr[uint256(i)].score > pivot) i++;\r\n            while (pivot > arr[uint256(j)].score) j--;\r\n            if (i <= j) {\r\n                (arr[uint256(i)], arr[uint256(j)]) = (\r\n                    arr[uint256(j)],\r\n                    arr[uint256(i)]\r\n                );\r\n                i++;\r\n                j--;\r\n            }\r\n        }\r\n        if (left < j) quickSort(arr, left, j);\r\n        if (i < right) quickSort(arr, i, right);\r\n    }\r\n\r\n    function getArraySum(uint256[] memory _array)\r\n        public\r\n        pure\r\n        returns (uint256 sum_)\r\n    {\r\n        sum_ = 0;\r\n        for (uint256 i = 0; i < _array.length; i++) {\r\n            sum_ += _array[i];\r\n        }\r\n    }\r\n}\r\n",
  "sourcePath": "C:\\Users\\ghard\\Documents\\GitHub\\TRX-Arcade\\contracts\\HelperContract.sol",
  "compiler": {
    "name": "solc",
    "version": "0.6.12+commit.27d51765.Emscripten.clang"
  },
  "schemaVersion": "3.2.4",
  "updatedAt": "2020-10-16T19:15:45.521Z",
  "devdoc": {
    "kind": "dev",
    "methods": {
      "owner()": {
        "details": "Returns the address of the current owner."
      },
      "renounceOwnership()": {
        "details": "Leaves the contract without owner. It will not be possible to call `onlyOwner` functions anymore. Can only be called by the current owner. NOTE: Renouncing ownership will leave the contract without an owner, thereby removing any functionality that is only available to the owner."
      },
      "transferOwnership(address)": {
        "details": "Transfers ownership of the contract to a new account (`newOwner`). Can only be called by the current owner."
      }
    },
    "version": 1
  },
  "userdoc": {
    "kind": "user",
    "methods": {},
    "version": 1
  }
}